:100000000C945C000C9479000C9479000C947900A9
:100010000C9479000C9479000C9479000C9479007C
:100020000C9479000C9479000C9479000C9479006C
:100030000C9479000C9479000C9479000C9479005C
:100040000C943E010C9479000C9479000C94790086
:100050000C9479000C9479000C9479000C9479003C
:100060000C9479000C947900000000080002010053
:100070000003040700000000000000000000000072
:10008000250028002B0000000000240027002A0083
:10009000040404040404040402020202020203032E
:1000A0000303030301020408102040800102040836
:1000B000102001020408102011241FBECFEFD8E049
:1000C000DEBFCDBF11E0A0E0B1E0EAEBF5E002C099
:1000D00005900D92A831B107D9F721E0A8E1B1E070
:1000E00001C01D92A132B207E1F70E9488010C9471
:1000F000DB020C94000090E0FC01EC55FF4F2491D2
:1001000080579F4FFC018491882399F090E0880FDD
:10011000991FFC01EA57FF4FA591B491FC01E458E7
:10012000FF4F859194918FB7F894EC91E22BEC936B
:100130008FBF089590E0FC01E859FF4F2491FC0126
:10014000EC55FF4F3491FC01E057FF4FE491EE2353
:10015000C9F0222339F0233001F1A8F4213019F13C
:10016000223029F1F0E0EE0FFF1FE458FF4FA59178
:10017000B4918FB7F894EC91611126C030953E236D
:100180003C938FBF08952730A9F02830C9F0243060
:1001900049F7809180008F7D03C0809180008F7728
:1001A00080938000DFCF84B58F7784BDDBCF84B5AB
:1001B0008F7DFBCF8091B0008F778093B000D2CF3E
:1001C0008091B0008F7DF9CF3E2BDACF3FB7F89406
:1001D00080911D0190911E01A0911F01B0912001FD
:1001E00026B5A89B05C02F3F19F00196A11DB11D92
:1001F0003FBFBA2FA92F982F8827BC01CD01620FCE
:10020000711D811D911D42E0660F771F881F991F88
:100210004A95D1F708958F929F92AF92BF92CF9255
:10022000DF92EF92FF926B017C010E94E6004B018E
:100230005C01C114D104E104F104B9F00E94E600AC
:10024000681979098A099B09683E734081059105FF
:1002500080F321E0C21AD108E108F10888EE880E87
:1002600083E0981EA11CB11CE4CFFF90EF90DF90BB
:10027000CF90BF90AF909F908F9008951F920F9254
:100280000FB60F9211242F933F938F939F93AF93A9
:10029000BF938091190190911A01A0911B01B09117
:1002A0001C013091180123E0230F2D3758F50196DA
:1002B000A11DB11D209318018093190190931A017B
:1002C000A0931B01B0931C0180911D0190911E0110
:1002D000A0911F01B09120010196A11DB11D809335
:1002E0001D0190931E01A0931F01B0932001BF91A7
:1002F000AF919F918F913F912F910F900FBE0F90D3
:100300001F90189526E8230F0296A11DB11DD2CF8C
:10031000789484B5826084BD84B5816084BD85B5E0
:10032000826085BD85B5816085BD80916E008160EC
:1003300080936E0010928100809181008260809392
:100340008100809181008160809381008091800094
:100350008160809380008091B10084608093B100BF
:100360008091B00081608093B00080917A008460B9
:1003700080937A0080917A00826080937A008091E5
:100380007A00816080937A0080917A0080688093FF
:100390007A001092C1008BE00E947B0088E00E94EE
:1003A0007B0085E00E947B0082E00E947B008AE067
:1003B0000E947B0087E00E947B0084E00E947B001B
:1003C00081E00E947B0089E00E947B0086E00E9421
:1003D0007B0083E00E947B0080E00E947B00C2E102
:1003E000D1E080E0C82E81E0D82E9CE0E92E91E09B
:1003F000F92E06E011E08881229660E00E949A00C2
:10040000F6018081F2E0CF0ED11C60E00E949A00DC
:10041000F7018081F2E0EF0EF11C60E00E949A008B
:10042000F80180810E5F1F4F60E00E949A00F1E0AA
:10043000C831DF0701F7C0E0D0E061E089E00E9449
:100440009A0061E085E00E949A0061E082E00E94EB
:100450009A0061E088E00E949A0068E873E180E019
:1004600090E00E940B0160E089E00E949A0060E049
:1004700085E00E949A0061E08AE00E949A0061E0B3
:1004800084E00E949A0068E873E180E090E00E94B6
:100490000B0160E08AE00E949A0060E084E00E9424
:1004A0009A0061E08BE00E949A0061E083E00E9484
:1004B0009A0068E873E180E090E00E940B0160E040
:1004C00083E00E949A0060E082E00E949A0061E06E
:1004D00084E00E949A0061E081E00E949A0068E84E
:1004E00073E180E090E00E940B0160E084E00E94F4
:1004F0009A0060E081E00E949A0061E085E00E943D
:100500009A0061E080E00E949A0068E873E180E070
:1005100090E00E940B0160E080E00E949A0060E0A1
:1005200088E00E949A0061E081E00E949A0061E008
:1005300087E00E949A0068E873E180E090E00E9402
:100540000B0160E081E00E949A0060E087E00E9479
:100550009A0061E082E00E949A0061E086E00E94D9
:100560009A0068E873E180E090E00E940B0160E08F
:100570008BE00E949A0060E086E00E949A0061E0B1
:100580008AE00E949A0061E087E00E949A0068E891
:1005900073E180E090E00E940B0160E087E00E9440
:1005A0009A0060E08AE00E949A00209709F445CF03
:0A05B0000E94000042CFF894FFCF34
:1005BA000800070006000200010000000500040010
:0805CA0003000B000A00090008
:00000001FF
